{
  "_format": "hh-sol-artifact-1",
  "contractName": "Verifier",
  "sourceName": "contracts/Verifier.sol",
  "abi": [
    {
      "inputs": [
        {
          "internalType": "uint256",
          "name": "m",
          "type": "uint256"
        },
        {
          "internalType": "uint256",
          "name": "id",
          "type": "uint256"
        }
      ],
      "name": "addDevices",
      "outputs": [
        {
          "internalType": "bool",
          "name": "",
          "type": "bool"
        }
      ],
      "stateMutability": "nonpayable",
      "type": "function"
    },
    {
      "inputs": [],
      "name": "qresult",
      "outputs": [
        {
          "internalType": "uint256",
          "name": "ID",
          "type": "uint256"
        },
        {
          "internalType": "uint256",
          "name": "m",
          "type": "uint256"
        }
      ],
      "stateMutability": "view",
      "type": "function"
    },
    {
      "inputs": [
        {
          "internalType": "uint256",
          "name": "m",
          "type": "uint256"
        }
      ],
      "name": "query",
      "outputs": [
        {
          "components": [
            {
              "internalType": "uint256",
              "name": "ID",
              "type": "uint256"
            },
            {
              "internalType": "uint256",
              "name": "m",
              "type": "uint256"
            }
          ],
          "internalType": "struct Verifier.metaData",
          "name": "",
          "type": "tuple"
        }
      ],
      "stateMutability": "nonpayable",
      "type": "function"
    },
    {
      "inputs": [
        {
          "internalType": "uint256",
          "name": "m",
          "type": "uint256"
        }
      ],
      "name": "removeDevices",
      "outputs": [
        {
          "internalType": "bool",
          "name": "",
          "type": "bool"
        }
      ],
      "stateMutability": "nonpayable",
      "type": "function"
    },
    {
      "inputs": [
        {
          "components": [
            {
              "components": [
                {
                  "internalType": "uint256",
                  "name": "X",
                  "type": "uint256"
                },
                {
                  "internalType": "uint256",
                  "name": "Y",
                  "type": "uint256"
                }
              ],
              "internalType": "struct Pairing.G1Point",
              "name": "a",
              "type": "tuple"
            },
            {
              "components": [
                {
                  "internalType": "uint256",
                  "name": "X",
                  "type": "uint256"
                },
                {
                  "internalType": "uint256",
                  "name": "Y",
                  "type": "uint256"
                }
              ],
              "internalType": "struct Pairing.G1Point",
              "name": "a_p",
              "type": "tuple"
            },
            {
              "components": [
                {
                  "internalType": "uint256[2]",
                  "name": "X",
                  "type": "uint256[2]"
                },
                {
                  "internalType": "uint256[2]",
                  "name": "Y",
                  "type": "uint256[2]"
                }
              ],
              "internalType": "struct Pairing.G2Point",
              "name": "b",
              "type": "tuple"
            },
            {
              "components": [
                {
                  "internalType": "uint256",
                  "name": "X",
                  "type": "uint256"
                },
                {
                  "internalType": "uint256",
                  "name": "Y",
                  "type": "uint256"
                }
              ],
              "internalType": "struct Pairing.G1Point",
              "name": "b_p",
              "type": "tuple"
            },
            {
              "components": [
                {
                  "internalType": "uint256",
                  "name": "X",
                  "type": "uint256"
                },
                {
                  "internalType": "uint256",
                  "name": "Y",
                  "type": "uint256"
                }
              ],
              "internalType": "struct Pairing.G1Point",
              "name": "c",
              "type": "tuple"
            },
            {
              "components": [
                {
                  "internalType": "uint256",
                  "name": "X",
                  "type": "uint256"
                },
                {
                  "internalType": "uint256",
                  "name": "Y",
                  "type": "uint256"
                }
              ],
              "internalType": "struct Pairing.G1Point",
              "name": "c_p",
              "type": "tuple"
            },
            {
              "components": [
                {
                  "internalType": "uint256",
                  "name": "X",
                  "type": "uint256"
                },
                {
                  "internalType": "uint256",
                  "name": "Y",
                  "type": "uint256"
                }
              ],
              "internalType": "struct Pairing.G1Point",
              "name": "h",
              "type": "tuple"
            },
            {
              "components": [
                {
                  "internalType": "uint256",
                  "name": "X",
                  "type": "uint256"
                },
                {
                  "internalType": "uint256",
                  "name": "Y",
                  "type": "uint256"
                }
              ],
              "internalType": "struct Pairing.G1Point",
              "name": "k",
              "type": "tuple"
            }
          ],
          "internalType": "struct Verifier.Proof",
          "name": "proof",
          "type": "tuple"
        },
        {
          "internalType": "uint256[1]",
          "name": "input",
          "type": "uint256[1]"
        }
      ],
      "name": "verifyTx",
      "outputs": [
        {
          "internalType": "bool",
          "name": "r",
          "type": "bool"
        }
      ],
      "stateMutability": "nonpayable",
      "type": "function"
    }
  ],
  "bytecode": "0x608060405260008055600060015534801561001957600080fd5b50612e1a806100296000396000f3fe608060405234801561001057600080fd5b50600436106100575760003560e01c80630b6d90b71461005c5780634db7eeb91461008c578063afdac68d146100bc578063d3842ff8146100ec578063e45f69911461010b575b600080fd5b61007660048036038101906100719190612a05565b61013b565b6040516100839190612ac6565b60405180910390f35b6100a660048036038101906100a191906129c7565b610672565b6040516100b39190612ac6565b60405180910390f35b6100d660048036038101906100d19190612a05565b6107ca565b6040516100e39190612ae1565b60405180910390f35b6100f4610904565b604051610102929190612afc565b60405180910390f35b61012560048036038101906101209190612a2e565b610917565b6040516101329190612ac6565b60405180910390f35b6000610145610afc565b1561066857600080600091505b600054821015610665576002826103e88110610197577f4e487b7100000000000000000000000000000000000000000000000000000000600052603260045260246000fd5b6003020160000160009054906101000a900473ffffffffffffffffffffffffffffffffffffffff1673ffffffffffffffffffffffffffffffffffffffff163373ffffffffffffffffffffffffffffffffffffffff1614156106525760006002836103e8811061022f577f4e487b7100000000000000000000000000000000000000000000000000000000600052603260045260246000fd5b60030201600201805490509050600091505b8082101561048a576002836103e88110610284577f4e487b7100000000000000000000000000000000000000000000000000000000600052603260045260246000fd5b6003020160020182815481106102c3577f4e487b7100000000000000000000000000000000000000000000000000000000600052603260045260246000fd5b9060005260206000200154851415610477576002836103e88110610310577f4e487b7100000000000000000000000000000000000000000000000000000000600052603260045260246000fd5b60030201600201828154811061034f577f4e487b7100000000000000000000000000000000000000000000000000000000600052603260045260246000fd5b90600052602060002001600090556002836103e88110610398577f4e487b7100000000000000000000000000000000000000000000000000000000600052603260045260246000fd5b600302016002016001826103ac9190612c52565b815481106103e3577f4e487b7100000000000000000000000000000000000000000000000000000000600052603260045260246000fd5b90600052602060002001546002846103e88110610429577f4e487b7100000000000000000000000000000000000000000000000000000000600052603260045260246000fd5b600302016002018381548110610468577f4e487b7100000000000000000000000000000000000000000000000000000000600052603260045260246000fd5b90600052602060002001819055505b818061048290612cc6565b925050610241565b600091505b60015482101561064657610bba8261271081106104d5577f4e487b7100000000000000000000000000000000000000000000000000000000600052603260045260246000fd5b6002020160010154851415610633576000610bba836127108110610522577f4e487b7100000000000000000000000000000000000000000000000000000000600052603260045260246000fd5b60020201600101819055506000610bba83612710811061056b577f4e487b7100000000000000000000000000000000000000000000000000000000600052603260045260246000fd5b6002020160000181905550610bba600180546105879190612c52565b61271081106105bf577f4e487b7100000000000000000000000000000000000000000000000000000000600052603260045260246000fd5b60020201610bba8361271081106105ff577f4e487b7100000000000000000000000000000000000000000000000000000000600052603260045260246000fd5b6002020160008201548160000155600182015481600101559050506001600081548092919061062d90612c9c565b91905055505b818061063e90612cc6565b92505061048f565b6001935050505061066d565b818061065d90612cc6565b925050610152565b50505b600090505b919050565b600080600167ffffffffffffffff8111156106b6577f4e487b7100000000000000000000000000000000000000000000000000000000600052604160045260246000fd5b6040519080825280602002602001820160405280156106e45781602001602082028036833780820191505090505b50905060005b60018110156107895783816001811061072c577f4e487b7100000000000000000000000000000000000000000000000000000000600052603260045260246000fd5b602002015182828151811061076a577f4e487b7100000000000000000000000000000000000000000000000000000000600052603260045260246000fd5b602002602001018181525050808061078190612cc6565b9150506106ea565b5060006107968286610bc9565b14156107be576107a581610ef7565b156107b45760019150506107c4565b60009150506107c4565b60009150505b92915050565b6107d26125ea565b60005b6001548110156108c157610bba81612710811061081b577f4e487b7100000000000000000000000000000000000000000000000000000000600052603260045260246000fd5b60020201600101548314156108ae57610bba816127108110610866577f4e487b7100000000000000000000000000000000000000000000000000000000600052603260045260246000fd5b600202016159da60008201548160000155600182015481600101559050506159da604051806040016040529081600082015481526020016001820154815250509150506108ff565b80806108b990612cc6565b9150506107d5565b60006159da6001018190555060006159da600001819055506159da604051806040016040529081600082015481526020016001820154815250509150505b919050565b6159da8060000154908060010154905082565b600080600090505b6000548111610af0576002816103e88110610963577f4e487b7100000000000000000000000000000000000000000000000000000000600052603260045260246000fd5b6003020160000160009054906101000a900473ffffffffffffffffffffffffffffffffffffffff1673ffffffffffffffffffffffffffffffffffffffff163373ffffffffffffffffffffffffffffffffffffffff161415610add576002816103e881106109f9577f4e487b7100000000000000000000000000000000000000000000000000000000600052603260045260246000fd5b6003020160020184908060018154018082558091505060019003906000526020600020016000909190919091505583610bba6001546127108110610a66577f4e487b7100000000000000000000000000000000000000000000000000000000600052603260045260246000fd5b600202016001018190555082610bba6001546127108110610ab0577f4e487b7100000000000000000000000000000000000000000000000000000000600052603260045260246000fd5b600202016000018190555060016000815480929190610ace90612cc6565b91905055506001915050610af6565b8080610ae890612cc6565b91505061091f565b60009150505b92915050565b600080600090505b6000548111610bc0576002816103e88110610b48577f4e487b7100000000000000000000000000000000000000000000000000000000600052603260045260246000fd5b6003020160000160009054906101000a900473ffffffffffffffffffffffffffffffffffffffff1673ffffffffffffffffffffffffffffffffffffffff163373ffffffffffffffffffffffffffffffffffffffff161415610bad576001915050610bc6565b8080610bb890612cc6565b915050610b04565b60009150505b90565b6000807f30644e72e131a029b85045b68181585d2833e84879b9709143e1f593f000000190506000610bf9610fcb565b90508060e001515160018651610c0f9190612ba2565b14610c1957600080fd5b60006040518060400160405280600081526020016000815250905060005b8651811015610d445783878281518110610c7a577f4e487b7100000000000000000000000000000000000000000000000000000000600052603260045260246000fd5b602002602001015110610c8c57600080fd5b610d2f82610d2a8560e00151600185610ca59190612ba2565b81518110610cdc577f4e487b7100000000000000000000000000000000000000000000000000000000600052603260045260246000fd5b60200260200101518a8581518110610d1d577f4e487b7100000000000000000000000000000000000000000000000000000000600052603260045260246000fd5b6020026020010151611628565b611741565b91508080610d3c90612cc6565b915050610c37565b50610d94818360e00151600081518110610d87577f4e487b7100000000000000000000000000000000000000000000000000000000600052603260045260246000fd5b6020026020010151611741565b9050610dbd85600001518360000151610db088602001516118a6565b610db861194b565b611a15565b610dcd5760019350505050610ef1565b610df482602001518660400151610de788606001516118a6565b610def61194b565b611a15565b610e045760029350505050610ef1565b610e2b85608001518360400151610e1e8860a001516118a6565b610e2661194b565b611a15565b610e3b5760039350505050610ef1565b610e878560e001518360600151610e6b610e6685610e618b600001518c60800151611741565b611741565b6118a6565b8560a00151610e7d87608001516118a6565b8a60400151611c42565b610e975760049350505050610ef1565b610ed9610ea8828760000151611741565b8660400151610eba8860c001516118a6565b8560c00151610ecc8a608001516118a6565b610ed461194b565b611c42565b610ee95760059350505050610ef1565b600093505050505b92915050565b600080600083600081518110610f36577f4e487b7100000000000000000000000000000000000000000000000000000000600052603260045260246000fd5b60200260200101519050600091505b6000548211610fb6576002826103e88110610f89577f4e487b7100000000000000000000000000000000000000000000000000000000600052603260045260246000fd5b6003020160010154811415610fa357600092505050610fc6565b8180610fae90612cc6565b925050610f45565b610fbf81611efd565b6001925050505b919050565b610fd3612604565b604051806040016040528060405180604001604052807f0e952ca7cf32565ec05233cd530739e1e7ca929fc19311b852e4c1067922451681526020017f1f6706c293a11e98f7fe3288aec2cbf6ff7392d5eb1eb74cf9e94b2065e4c161815250815260200160405180604001604052807f190b84da4c05fdc4ae16cca1367cc8aceaea3895216249413fb13265955e444381526020017f042b0a88a6309dd8902d739579f1ce527842d75e3e02961c58220a93da843784815250815250816000018190525060405180604001604052807f186c6fb5e6ab0017808168af83dcfe4a945557a3e9903046854a50810ea8060381526020017f2c6f2081032255c09eba04d8bb6fbe93352abccba4b3924fe290a3fa75cbce038152508160200181905250604051806040016040528060405180604001604052807f077108136d79cbee30e5cbed9e27e993486870ddd982c5e58f3736756a5a035181526020017f11841ecbc9477bfe672917ff314c42223b63e5e5939febdf7300a634726b1891815250815260200160405180604001604052807f0e9af023e0d4be4f02dcbef84a14a0df941a255bea1b74393e3f88524cf7853d81526020017f2a14514614d6e6a8cfc6b3ee042908249ce58befadddf5076795e4c4095679418152508152508160400181905250604051806040016040528060405180604001604052807f1689e6dfe511bbd3f465c683219cb66e888b312f9e450c59e90431192dccbffe81526020017f24f4d84d6faa770940b27611735f9581573d2a97be6261b3aa1d7eb8bb607cb2815250815260200160405180604001604052807f15a63109b1658bb0aeb2cf51058001279889f7e98ed2dfac156a695185ce992a81526020017f27907c89000098eb59274b32be4c799715b64b3974dcef32fae391ba4c292231815250815250816060018190525060405180604001604052807f025e1aab4af057c1f1ec5b51073b00d0dec8b96aa53a590b108af7dd5615cb5281526020017f2231d2cd98f51303af826e89949323687a0c2294131f17ad6769fc3cc13ac66c8152508160800181905250604051806040016040528060405180604001604052807f1abaed28a7336b2366852ca7171bab3461bbe98aafeabfc0e770a595750a0e9e81526020017f2eacc7fbf11437e44ef11db6f5d77c855d3fe4de87491a0be4242bb9630e53c7815250815260200160405180604001604052807f1382138a0c7b5173144e2ab766683f4802027ed9faf99acbb597d92e89f24cf081526020017f2559962955ddc168e57d34bd3ec2bfb4b205dd31a6598f24201b5b69ba0a3d198152508152508160a00181905250604051806040016040528060405180604001604052807f27d6de9291f027da9bb5e72e7576360956b5e0398a1727606d2bd6b13ea1c15c81526020017f13b4b4f8e60d9f3a1c0add19c016e7c34608950e418b02fcf7339179ebc1b8cb815250815260200160405180604001604052807f2d13e94365c4b03f93e6576e5078be06acbe087b619b07de29d2ee98da1198b381526020017f08799c51f0e2213bc7f4fec8bc4308970f29a09e17d65fb6983ea87bfd23d3038152508152508160c00181905250600267ffffffffffffffff8111156114a7577f4e487b7100000000000000000000000000000000000000000000000000000000600052604160045260246000fd5b6040519080825280602002602001820160405280156114e057816020015b6114cd612673565b8152602001906001900390816114c55790505b508160e0018190525060405180604001604052807f26d880ce4303adde015ade150da9397e652924a14cc5152eb35f294b2b98ebfc81526020017f1c8395baaaa53202aa4199ec23d1693779616bc4971c89d1109793665d65b0ec8152508160e0015160008151811061157c577f4e487b7100000000000000000000000000000000000000000000000000000000600052603260045260246000fd5b602002602001018190525060405180604001604052807f173d27742abe5eabc064cf25170da120a783f597a157a584d49b9a6611fad2c881526020017f16a4cf0e4c979904aba206a4aa630f3f6a1a479fcb7c0f97c944529fd01540138152508160e0015160018151811061161a577f4e487b7100000000000000000000000000000000000000000000000000000000600052603260045260246000fd5b602002602001018190525090565b611630612673565b61163861268d565b836000015181600060038110611677577f4e487b7100000000000000000000000000000000000000000000000000000000600052603260045260246000fd5b6020020181815250508360200151816001600381106116bf577f4e487b7100000000000000000000000000000000000000000000000000000000600052603260045260246000fd5b6020020181815250508281600260038110611703577f4e487b7100000000000000000000000000000000000000000000000000000000600052603260045260246000fd5b602002018181525050600060608360808460076107d05a03fa9050806000811461172c5761172e565bfe5b508061173957600080fd5b505092915050565b611749612673565b6117516126af565b836000015181600060048110611790577f4e487b7100000000000000000000000000000000000000000000000000000000600052603260045260246000fd5b6020020181815250508360200151816001600481106117d8577f4e487b7100000000000000000000000000000000000000000000000000000000600052603260045260246000fd5b602002018181525050826000015181600260048110611820577f4e487b7100000000000000000000000000000000000000000000000000000000600052603260045260246000fd5b602002018181525050826020015181600360048110611868577f4e487b7100000000000000000000000000000000000000000000000000000000600052603260045260246000fd5b602002018181525050600060608360c08460066107d05a03fa9050806000811461189157611893565bfe5b508061189e57600080fd5b505092915050565b6118ae612673565b60007f30644e72e131a029b85045b68181585d97816a916871ca8d3c208c16d87cfd479050600083600001511480156118eb575060008360200151145b1561190f576040518060400160405280600081526020016000815250915050611946565b6040518060400160405280846000015181526020018285602001516119349190612d0f565b8361193f9190612c52565b8152509150505b919050565b6119536126d1565b604051806040016040528060405180604001604052807f1800deef121f1e76426a00665e5c4479674322d4f75edadd46debd5cd992f6ed81526020017f198e9393920d483a7260bfb731fb5d25f1aa493335a9e71297e485b7aef312c2815250815260200160405180604001604052807f12c85ea5db8c6deb4aab71808dcb408fe3d1e7690c43d37b4ce6cc0166fa7daa81526020017f090689d0585ff075ec9e99ad690c3395bc4b313370b38ef355acdadcd122975b815250815250905090565b600080600267ffffffffffffffff811115611a59577f4e487b7100000000000000000000000000000000000000000000000000000000600052604160045260246000fd5b604051908082528060200260200182016040528015611a9257816020015b611a7f612673565b815260200190600190039081611a775790505b5090506000600267ffffffffffffffff811115611ad8577f4e487b7100000000000000000000000000000000000000000000000000000000600052604160045260246000fd5b604051908082528060200260200182016040528015611b1157816020015b611afe6126d1565b815260200190600190039081611af65790505b5090508682600081518110611b4f577f4e487b7100000000000000000000000000000000000000000000000000000000600052603260045260246000fd5b60200260200101819052508482600181518110611b95577f4e487b7100000000000000000000000000000000000000000000000000000000600052603260045260246000fd5b60200260200101819052508581600081518110611bdb577f4e487b7100000000000000000000000000000000000000000000000000000000600052603260045260246000fd5b60200260200101819052508381600181518110611c21577f4e487b7100000000000000000000000000000000000000000000000000000000600052603260045260246000fd5b6020026020010181905250611c368282611fe3565b92505050949350505050565b600080600367ffffffffffffffff811115611c86577f4e487b7100000000000000000000000000000000000000000000000000000000600052604160045260246000fd5b604051908082528060200260200182016040528015611cbf57816020015b611cac612673565b815260200190600190039081611ca45790505b5090506000600367ffffffffffffffff811115611d05577f4e487b7100000000000000000000000000000000000000000000000000000000600052604160045260246000fd5b604051908082528060200260200182016040528015611d3e57816020015b611d2b6126d1565b815260200190600190039081611d235790505b5090508882600081518110611d7c577f4e487b7100000000000000000000000000000000000000000000000000000000600052603260045260246000fd5b60200260200101819052508682600181518110611dc2577f4e487b7100000000000000000000000000000000000000000000000000000000600052603260045260246000fd5b60200260200101819052508482600281518110611e08577f4e487b7100000000000000000000000000000000000000000000000000000000600052603260045260246000fd5b60200260200101819052508781600081518110611e4e577f4e487b7100000000000000000000000000000000000000000000000000000000600052603260045260246000fd5b60200260200101819052508581600181518110611e94577f4e487b7100000000000000000000000000000000000000000000000000000000600052603260045260246000fd5b60200260200101819052508381600281518110611eda577f4e487b7100000000000000000000000000000000000000000000000000000000600052603260045260246000fd5b6020026020010181905250611eef8282611fe3565b925050509695505050505050565b3360026000546103e88110611f3b577f4e487b7100000000000000000000000000000000000000000000000000000000600052603260045260246000fd5b6003020160000160006101000a81548173ffffffffffffffffffffffffffffffffffffffff021916908373ffffffffffffffffffffffffffffffffffffffff1602179055508060026000546103e88110611fbe577f4e487b7100000000000000000000000000000000000000000000000000000000600052603260045260246000fd5b6003020160010181905550600080815480929190611fdb90612cc6565b919050555050565b60008151835114611ff357600080fd5b60008351905060006006826120089190612bf8565b905060008167ffffffffffffffff81111561204c577f4e487b7100000000000000000000000000000000000000000000000000000000600052604160045260246000fd5b60405190808252806020026020018201604052801561207a5781602001602082028036833780820191505090505b50905060005b8381101561255f578681815181106120c1577f4e487b7100000000000000000000000000000000000000000000000000000000600052603260045260246000fd5b6020026020010151600001518260006006846120dd9190612bf8565b6120e79190612ba2565b8151811061211e577f4e487b7100000000000000000000000000000000000000000000000000000000600052603260045260246000fd5b602002602001018181525050868181518110612163577f4e487b7100000000000000000000000000000000000000000000000000000000600052603260045260246000fd5b60200260200101516020015182600160068461217f9190612bf8565b6121899190612ba2565b815181106121c0577f4e487b7100000000000000000000000000000000000000000000000000000000600052603260045260246000fd5b602002602001018181525050858181518110612205577f4e487b7100000000000000000000000000000000000000000000000000000000600052603260045260246000fd5b60200260200101516000015160016002811061224a577f4e487b7100000000000000000000000000000000000000000000000000000000600052603260045260246000fd5b602002015182600260068461225f9190612bf8565b6122699190612ba2565b815181106122a0577f4e487b7100000000000000000000000000000000000000000000000000000000600052603260045260246000fd5b6020026020010181815250508581815181106122e5577f4e487b7100000000000000000000000000000000000000000000000000000000600052603260045260246000fd5b60200260200101516000015160006002811061232a577f4e487b7100000000000000000000000000000000000000000000000000000000600052603260045260246000fd5b602002015182600360068461233f9190612bf8565b6123499190612ba2565b81518110612380577f4e487b7100000000000000000000000000000000000000000000000000000000600052603260045260246000fd5b6020026020010181815250508581815181106123c5577f4e487b7100000000000000000000000000000000000000000000000000000000600052603260045260246000fd5b60200260200101516020015160016002811061240a577f4e487b7100000000000000000000000000000000000000000000000000000000600052603260045260246000fd5b602002015182600460068461241f9190612bf8565b6124299190612ba2565b81518110612460577f4e487b7100000000000000000000000000000000000000000000000000000000600052603260045260246000fd5b6020026020010181815250508581815181106124a5577f4e487b7100000000000000000000000000000000000000000000000000000000600052603260045260246000fd5b6020026020010151602001516000600281106124ea577f4e487b7100000000000000000000000000000000000000000000000000000000600052603260045260246000fd5b60200201518260056006846124ff9190612bf8565b6125099190612ba2565b81518110612540577f4e487b7100000000000000000000000000000000000000000000000000000000600052603260045260246000fd5b602002602001018181525050808061255790612cc6565b915050612080565b506125686126f7565b6000602082602086026020860160086107d05a03fa9050806000811461258d5761258f565bfe5b508061259a57600080fd5b6000826000600181106125d6577f4e487b7100000000000000000000000000000000000000000000000000000000600052603260045260246000fd5b602002015114159550505050505092915050565b604051806040016040528060008152602001600081525090565b6040518061010001604052806126186126d1565b8152602001612625612673565b81526020016126326126d1565b815260200161263f6126d1565b815260200161264c612673565b81526020016126596126d1565b81526020016126666126d1565b8152602001606081525090565b604051806040016040528060008152602001600081525090565b6040518060600160405280600390602082028036833780820191505090505090565b6040518060800160405280600490602082028036833780820191505090505090565b60405180604001604052806126e4612719565b81526020016126f1612719565b81525090565b6040518060200160405280600190602082028036833780820191505090505090565b6040518060400160405280600290602082028036833780820191505090505090565b600061274e61274984612b56565b612b25565b9050808285602086028201111561276457600080fd5b60005b85811015612794578161277a88826129b2565b845260208401935060208301925050600181019050612767565b5050509392505050565b60006127b16127ac84612b7c565b612b25565b905080828560208602820111156127c757600080fd5b60005b858110156127f757816127dd88826129b2565b8452602084019350602083019250506001810190506127ca565b5050509392505050565b600082601f83011261281257600080fd5b600161281f84828561273b565b91505092915050565b600082601f83011261283957600080fd5b600261284684828561279e565b91505092915050565b60006040828403121561286157600080fd5b61286b6040612b25565b9050600061287b848285016129b2565b600083015250602061288f848285016129b2565b60208301525092915050565b6000608082840312156128ad57600080fd5b6128b76040612b25565b905060006128c784828501612828565b60008301525060406128db84828501612828565b60208301525092915050565b600061024082840312156128fa57600080fd5b612905610100612b25565b905060006129158482850161284f565b60008301525060406129298482850161284f565b602083015250608061293d8482850161289b565b6040830152506101006129528482850161284f565b6060830152506101406129678482850161284f565b60808301525061018061297c8482850161284f565b60a0830152506101c06129918482850161284f565b60c0830152506102006129a68482850161284f565b60e08301525092915050565b6000813590506129c181612dcd565b92915050565b60008061026083850312156129db57600080fd5b60006129e9858286016128e7565b9250506102406129fb85828601612801565b9150509250929050565b600060208284031215612a1757600080fd5b6000612a25848285016129b2565b91505092915050565b60008060408385031215612a4157600080fd5b6000612a4f858286016129b2565b9250506020612a60858286016129b2565b9150509250929050565b612a7381612c86565b82525050565b604082016000820151612a8f6000850182612aa8565b506020820151612aa26020850182612aa8565b50505050565b612ab181612c92565b82525050565b612ac081612c92565b82525050565b6000602082019050612adb6000830184612a6a565b92915050565b6000604082019050612af66000830184612a79565b92915050565b6000604082019050612b116000830185612ab7565b612b1e6020830184612ab7565b9392505050565b6000604051905081810181811067ffffffffffffffff82111715612b4c57612b4b612d9e565b5b8060405250919050565b600067ffffffffffffffff821115612b7157612b70612d9e565b5b602082029050919050565b600067ffffffffffffffff821115612b9757612b96612d9e565b5b602082029050919050565b6000612bad82612c92565b9150612bb883612c92565b9250827fffffffffffffffffffffffffffffffffffffffffffffffffffffffffffffffff03821115612bed57612bec612d40565b5b828201905092915050565b6000612c0382612c92565b9150612c0e83612c92565b9250817fffffffffffffffffffffffffffffffffffffffffffffffffffffffffffffffff0483118215151615612c4757612c46612d40565b5b828202905092915050565b6000612c5d82612c92565b9150612c6883612c92565b925082821015612c7b57612c7a612d40565b5b828203905092915050565b60008115159050919050565b6000819050919050565b6000612ca782612c92565b91506000821415612cbb57612cba612d40565b5b600182039050919050565b6000612cd182612c92565b91507fffffffffffffffffffffffffffffffffffffffffffffffffffffffffffffffff821415612d0457612d03612d40565b5b600182019050919050565b6000612d1a82612c92565b9150612d2583612c92565b925082612d3557612d34612d6f565b5b828206905092915050565b7f4e487b7100000000000000000000000000000000000000000000000000000000600052601160045260246000fd5b7f4e487b7100000000000000000000000000000000000000000000000000000000600052601260045260246000fd5b7f4e487b7100000000000000000000000000000000000000000000000000000000600052604160045260246000fd5b612dd681612c92565b8114612de157600080fd5b5056fea26469706673582212207be551de8e8cf3e28717054e7554606c53c87df7ba887c1d4ddfea93dbfb688764736f6c63430008000033",
  "linkReferences": {},
  "deployedLinkReferences": {}
}